:020000040000FA
:100000000A128A11EE2FFF1B0D2883137F18831706
:100010000008840A0319FF0A080000308A00040857
:10002000840A8207003420342034203420342034E1
:100030002034203420342034203420342034203420
:100040002034203420340034533465346E34683422
:1000500061343A34203420342034203420342034A5
:100060002034203420342034003420342034203410
:1000700020342034533445344E3441344934203410
:100080002034203420342034203400344F34703471
:100090006534723461346E3464346F342E342E34EB
:1000A0002E342034203420342034203400342034C2
:1000B000203420345334613475346434613463340F
:1000C0006F346534733420342034203420340034C9
:1000D000203420342034433461346934783461343A
:1000E000203442346F3478342034203420342034A7
:1000F00000342034533465346E3468346134203431
:1001000063346F347234723465347434613421343E
:1001100020340034533465346E3468346134203410
:1001200069346E3463346F347234723465347434C9
:1001300061342134003441343A344F3470346534FE
:1001400072346134633461346F34203443343A346C
:080150004334663467340034C7
:10085400831603178901F03083160313860083126D
:10086400031386010800F5007508F4000630031030
:10087400F40DFF3E031D392C730874077F39803E45
:100884000A128A117E250A128A1108007E088A003B
:100894007F0882000A128A1148240A128A118000F1
:1008A400840A04087D0603190034FF0A0319FE0AAA
:1008B4004C2C6A2CC730F2005F2CF20B5E2C622C9D
:1008C400632C0130F0020030031CF103F1026A2CA6
:1008D40070087104031D6F2C702C5C2C712C0800A3
:1008E40031343234333441343434353436344234AC
:1008F40037343834393443342A34303423344434A8
:10090400373435343334363400342034203420340E
:100914002034003483160313081188110812881236
:100924000813881383120313881528300A128A11B6
:100934007E250A128A110C300A128A117E250A12A7
:100944008A1101300A128A117E250A128A11023094
:100954000A128A117E250A128A110800F2008312F3
:10096400031308157208F00004300310F00CFF3E66
:10097400031DB72C7008F100F10E080871060F3939
:100984007106880088110D30F000F00BC72C83121B
:1009940003138815081572080F39F000F00E0808C3
:1009A40070060F397006880088110D30F000F00BC6
:1009B400D92C8312031388150800FB007608F9006C
:1009C4007908FA007608F9007908F3007B080A121E
:1009D4008A1135240A128A11082D78088312031308
:1009E400FF00770884000A128A1103200A128A1170
:1009F4000A128A11B0240A128A110130F707031867
:100A0400F80A0130F9007908FA07082D78088312EA
:100A14000313FF00770884000A128A1103200A12C4
:100A24008A11003A031D172D182DEF2C192D0800DB
:100A3400F601F80104307802031C212D222D242D07
:100A4400752D752D0130F200780A2A2D0310F20D50
:100A5400FF3E031D282D7208831203138600F7013D
:100A640004307702031C372D382D3A2D6A2D6A2D58
:100A74001030F200770A402D0310F20DFF3E031DE3
:100A84003E2D720806050319482D492D5F2D78085F
:100A9400F20002300310F20DFF3E031D4C2D2030F6
:100AA4007207F30077087307F40074088400831353
:100AB4000008F5007508F6005F2D0130F200720899
:100AC400F70704307702031C682D692D3A2D6A2D2F
:100AD4000130F2007208F80704307802031C732D09
:100AE400742D242D752D7608F200F3017208F000A0
:100AF4007308F1007D2D0800F2008312031308111E
:100B04007208F00004300310F00CFF3E031D852D25
:100B14007008F100F10E080871060F39710688009B
:100B2400881172030319972D982D9F2D0230720698
:100B3400031D9D2D9E2DA92D9F2D0330F10097306F
:100B4400F000F00BA32DF10BA32DA82DAE2D0D302D
:100B5400F000F00BAB2DAE2D831203138815F0308B
:100B64007205F00020307006031DB92DBA2DD42D66
:100B740008117208F00004300310F00CFF3E031D4E
:100B8400BE2D7008F100F10E080871060F397106C8
:100B9400880088110D30F000F00BCE2D8312031362
:100BA4008815D42D081172080F39F000F00E0808CA
:100BB40070060F3970068800881172030319E32D3B
:100BC400E42DEB2D02307206031DE92DEA2DF52DDF
:100BD400EB2D0330F1009730F000F00BEF2DF10B0B
:100BE400EF2DF42DFA2D0D30F000F00BF72DFA2D2A
:100BF400831203138815080083120313C601C70167
:100C04003F308400350883138000840A360880004E
:100C1400840A37088000840A38088000840A390866
:100C240080003A30840030088000840A3108800053
:100C3400840A32088000840A33088000840A340855
:100C44008000C5010A128A118C240A128A110A1220
:100C54008A112A240A128A11F6012330F7008030FF
:100C6400F80000300A128A11DF240A128A113A2E7F
:100C74000A128A111A250A128A117008FC007C08CB
:100C840083120313C9001C2FF6014530F70080308E
:100C9400F80000300A128A11DF240A128A11B830CF
:100CA400F0000B30F1000A128A115B240A128A1137
:100CB40083120313C601C60AC72FF6015630F70084
:100CC4008030F80000300A128A11DF240A128A11D7
:100CD400F6018930F7008030F80001300A128A11D9
:100CE400DF240A128A114130831203134906031DBB
:100CF4007C2E7D2E822E0A30FC007C08C600822EBB
:100D040043304906031D872E882EC72F1430FC005C
:100D14007C08C600C72FC72FF6013430F700803097
:100D2400F80000300A128A11DF240A128A11F6012F
:100D34000130F7008030F80001300A128A11DF24F4
:100D44000A128A112A30831203134906031DAB2E9B
:100D5400AC2EC72FC601C60AC72FC72FF601123003
:100D6400F7008030F80000300A128A11DF240A12DA
:100D74008A110A30FC007C0883120313C700153063
:100D8400FC007C08C600C72F0730FC007C08F60076
:100D94003F30F7000030F80000300A128A11DF24D7
:100DA4000A128A111E30831203134706031DDB2E19
:100DB400DC2EE12E1730FC007C08C600E12E283022
:100DC4004706031DE62EE72EC72F1A30FC007C08C9
:100DD400C600C72FC72FF6016730F7008030F80030
:100DE40000300A128A11DF240A128A112A3083126F
:100DF40003134906031DFF2E002FC72FC601C60A81
:100E0400C72FC72FF6017830F7008030F800003084
:100E14000A128A11DF240A128A112A308312031358
:100E24004906031D162F172FC72FC601C60AC72F41
:100E3400C72FC72F4608FC00FD017D08003A03199F
:100E4400242FC72F7C08003A0319462E013A0319B0
:100E54005F2E0B3A03198E2E1E3A0319B02E013A57
:100E64000319C62E023A0319ED2E0D3A0319042F65
:100E7400C72FC72F3A2E30304902031C422F432F6D
:100E84003A2E3A3049020318482F492F3A2E0B3094
:100E9400FC007C08C7003A2E3A2E4908FC0045089D
:100EA4003F3E84007C08831380000C30FC007C08E7
:100EB400C7003A2E4908031D602F612F3A2E0D30CA
:100EC400FC007C08C7003A2E3A2E0130FC007C0856
:100ED400C507043045020318702F712F762F0A308E
:100EE400FC007C08C7003A2E1430FC007C08C700C4
:100EF4003A2E3A2EC401C40AC80104304802031C25
:100F0400842F852F872FB32FB32F440803198B2FDA
:100F14008C2FA02F48083A3E840083130008FC005D
:100F240048083F3E840000087C0603199A2F9C2F32
:100F340001309D2F0030FD007D08C4002030FC00EE
:100F440048083F3E84007C08831380000130FC0085
:100F54007C08C80704304802031CB12FB22F872F26
:100F6400B32FC50144080319B82FB92FBE2F1E3063
:100F7400FC007C08C7003A2E2830FC007C08C7001F
:100F84003A2E3A2E3A2E3A2E3A2E4708FC00FD010C
:100F94007D08003A0319CF2F3A2E7C08003A031932
:100FA4003A2E0A3A03193D2F013A03194F2F073AF3
:100FB40003195C2F013A0319672F193A03197C2F7F
:100FC4000A3A03193A2E363A03193A2E3A2E3A2E91
:100FD4003A2E0A128A11002883133A30FD00043095
:100FE400FE007230FF00203084000A128A114C2463
:0C0FF4000A128A1183010A128A11FE2DD4
:04400E00D4E0FFFFFC
:00000001FF
